:101B5300466172536967687400536D617274204300
:101B6300617200496E697469616C697A696E672E86
:101B73002E2E2E2E00554152545F696E697421201A
:101B8300202020202020004D6F746F725F496E6902
:101B930074212020202020200054696D6572305F5D
:101BA300496E69742120202020200054696D6572DC
:101BB300315F496E697421202020202000576F7205
:0F1BC3006B696E67212020202020202020200029
:101813001216DC7BFF7A1B7953E4FDFC7F1E121743
:101823007D7BFF7A1B795C7D027C007F1912177D1B
:101833007BFF7A1B79667D067C007F10121D3E12AA
:101843000003120006121DA97BFF7A1B79787D061F
:101853007C007F10121D3E1222437BFF7A1B798A84
:101863007D067C007F10121D3E1222BF7BFF7A1B78
:10187300799C7D067C007F10121D3E1222927BFF15
:101883007A1B79AE7D067C007F10121D3E12232148
:101893007BFF7A1B79C07D067C007F10121D3E12F0
:0418A3001CC780FBE3
:061FD800014D00014E0066
:0822E9008F2C8E2B8D2A8C290D
:0A22F100EF1FAC0670011E4C70F6E2
:0122FB0022C0
:1022BF00D281D284C280C282C283C285D2A4D2A567
:0522CF00D2A6D2A722F7
:101A4B00E54F24FE601C14602B14603D2403704989
:101A5B00C280D282D283C285D2A4D2A5C2A6D2A77B
:101A6B008037D280C282C283D285D2A4D2A5D2A61D
:101A7B00C2A78025C280D282C283D285C2A4D2A53E
:101A8B00D2A6D2A7754F038010C280C282C283C276
:101A9B0085D2A4D2A5D2A6D2A730A02520B70620E6
:101AAB00B303754F0420B70630B303754F0130B73E
:101ABB000620B303754F0230B70A30B307754F03D7
:051ACB0022754F04220A
:101BD200E54F24FE601F14602E14604014604B24F5
:101BE200047057C280D282D283C285D2A4D2A5C247
:101BF200A6D2A78045D280C282C283D285D2A4D285
:101C0200A5D2A6C2A78033C280D282C283D285C2A5
:101C1200A4D2A5D2A6D2A7754F03801EC280C282CB
:101C2200C283C285D2A4D2A5800CD280C282D283C2
:101C3200C285D2A4C2A5D2A6D2A720A30620B703EA
:0B1C420020A004754F0422754F032200
:1019C300750E00750F647FE87E037D007C00122096
:1019D300B97510007511467FE87E037D007C001207
:1019E30020B975120075133C7FE87E037D007C00EF
:1019F3001220B97514007515327FE87E037D007CD3
:101A0300001220B97514007515517FE87E037D001F
:101A13007C001220B97512007513A07FE87E037D48
:101A2300007C001220B97510007511787FE87E03E1
:101A33007D007C001220B9750E00750F8C7FE87E47
:081A4300037D007C000220B9C4
:10220400B2A2751C00751DAA7FE87E037D007C00C8
:102214001220B9E4F51CF51D7FE87E03FDFC0220C5
:01222400B900
:1022FC00D2B5E4FFFE0FBF00010EEF64964E70F5F1
:02230C00C2B558
:01230E0022AC
:1018A700E4F52CF52BF52AF5291222FCE4F58DF544
:1018B7008BE58DC394FA500330B4F6E58DD394FAD3
:1018C700506DE4F58DF58B20B4FDAF8DE48F2CF5CD
:1018D7002BF52AF529AE2BAD2AAC29FB7A01F9F8AD
:1018E7001212F28F2C8E2B8D2A8C29AF8BE4FCFDE4
:1018F700FEE52C2FF52CEE352BF52BED352AF52AA9
:10190700EC3529F529AF2CAE2BAD2AFCE47B11FA77
:10191700F9F81212F28F2C8E2B8D2A8C29E47B6614
:0F1927007A56F9F812137D8F2C8E2B8D2A8C296E
:01193600228E
:1021C00030B303021F3C309503021F7330A3030298
:1021D000233230B70302234130A103021E0F122322
:0221E0006E226D
:102008001218A7EFC3941A5011C280C282C283C2A9
:1020180085D2A4D2A5D2A6D2A722C280D282C28358
:0E202800D285C2A4D2A5D2A6D2A7754F03229C
:10210B007FFF12237C7F0312237CE4FF12237C12BC
:10211B0018A712237C7FFF12237C7FE87E037D00B0
:05212B007C000220B958
:101CC700E54E654D6017E54E6010C280C282C28343
:101CD700C285D2A4D2A5D2A6D2A7854D4EE54DB4D2
:101CE70007005052901CF2F8282873021D07021DA6
:101CF7002B021D2E021D31021D34021D37021D3A13
:101D07001218A7EFC394105018E54FB40313C280FD
:101D1700C282C283C285D2A4D2A5D2A6D2A7D2B686
:101D270022C2B622021A4B0221C0021BD20220088D
:071D37000219C3122204226D
:082090008F4C8E4B8D4A8C49E8
:10209800784974FF121411EC4D4E4F6013E4FAFBAB
:1020A800C3EB941AEA940450E70BBB00010A80F0D2
:0120B8002205
:03000300C2B62260
:03000600C2A22271
:0F233200750D14750C3CC280D282C283D28522F5
:0F234100750D3C750C14C280D282C283D28522E6
:0F235000750D3C750C3CD280C282C283D28522AF
:0F235F00750D3C750C3CC280D282D283C28522A0
:10230F00750D3C750C3CC280D282C283D285754F4D
:02231F00032297
:0E236E00E4F50DF50CC280C282C283C2852246
:101E0F0012230F30B3028024309502802530A310A7
:101E1F0030A34212233230B30280113095F2801278
:101E2F0030B71230B72F12234130B303021F3C30AB
:101E3F0095F1021F7320951D20A31A20A11720B71B
:101E4F001420B31112230F20B70512235F80F8302F
:051E5F00A103121E0F9B
:011E6400225B
:101F3C0012230F7FA07E097D017C001222E930A1C3
:101F4C001612235F7F787E697D007C001222E920C7
:101F5C00A1F220B71180FB20A10C12235F30B7FD3A
:061F6C0030B303121E0F4A
:011F7200224C
:101F730030950530B3FA800E7FF47E017D007C003E
:101F83001222E930B303021F3C20A10620A3033031
:101F9300B703021E0F20A30512235080F8309503C8
:031FA300121E0FFC
:011FA6002218
:101FDE00011E00011F00010D50010C50020A0000ED
:101FEE00100E002D002D002D002D002D002D002D8A
:061FFE00002D02080000A6
:0820B9008F2C8E2B8D2A8C293F
:1020C100782974FF121411EC4D4E4F6013E4FAFBA2
:1020D100C3EB941AEA940450E70BBB00010A80F0A9
:0120E10022DC
:102292005389F0438901438EC043B802758CC175DE
:0722A2008ABED28CD2A922F2
:10232100D2AB53890F438910758D60758B60D28E46
:012331002289
:03000B00021EB31F
:101EB300C0E0C0D0051E051FE51ED3950D5004D20A
:101EC300818002C281E51ED394644005D281751ED0
:101ED30000E51FD3950C5004D2848002C284E51F11
:101EE300D394644005D284751F00758CC1758ABE76
:051EF300D0D0D0E03268
:03001B00021E655D
:091E6500C0E0C0D075D000C00639
:101E6E00758D60758B60050BE50B7002050A640AB3
:101E7E00450A7007E55160037551000509E509AE85
:101E8E00087002050814C394E8EE94034010750818
:0E1E9E0000750900E5516004B2878002D2870A
:071EAC00D006D0D0D0E032D7
:10213000E4F554E42554FFE43464FE122178E554B8
:1021400025E0240EF8760008A6070554E554C3944C
:032150000840E064
:012153002269
:102154004D6F64653A466F6C6C6F77204C696E65A1
:1021640020004D6F64653A4E6F726D616C202020C3
:042174002020200007
:0320040001510087
:10224300438780759850759C70438E04438E014379
:0D2253008E10D2ACD2AFD299C2A8C2AA227E
:0E237C00C2ACC2998F993099FDD299D2AC2291
:1022D400ED6011121276FF12237C740129F9E43A9D
:0522E400FA1D80EC2250
:10103E009000C8E0FF707CA3E0606424FE6024147E
:10104E00603514604624036003021275C280D2829A
:10105E00C283D285C2A4D2A5D2A6D2A7754F0375DC
:10106E004F0322D280C282D283C285D2A4C2A5D21D
:10107E00A6D2A7754F0522D280C282C283D285D254
:10108E00A4D2A5D2A6C2A7754F0222C280D282D206
:10109E0083C285D2A4D2A5C2A6D2A7754F0122C201
:1010AE0080C282C283C285D2A4D2A5D2A6D2A7758F
:1010BE004F0422EF640160030211559000CAE0FF55
:1010CE00D394B440030212759000C9E014B4080022
:1010DE0040030212759010F175F003A4C58325F03C
:1010EE00C5837302110902110F0211190211230295
:1010FE00112D02113702114102114B750E008F0F87
:10110E00229000CAE0751000F511229000CAE07519
:10111E001200F513229000CAE0751400F515229006
:10112E0000CAE0751600F517229000CAE075180087
:10113E00F519229000CAE0751A00F51B229000CA1C
:10114E00E0751C00F51D229000C8E0FFB40222A33A
:10115E00E024FE60110460030212759000CAE0756F
:10116E00F00AA4F50D229000CAE075F00AA4F50C61
:10117E0022EFB404129000C9E06009146003021259
:10118E0075D2B622C2B6229000C8E0FFB40510A3F5
:10119E00E06009146003021275D2A222C2A222EFED
:1011AE00B4501F9000C9E0FFC394054003021275AE
:1011BE00A3E0FEC3940A40030212758F428E4302CF
:1011CE0014849000C8E0B4511DA3E0FFC394054001
:1011DE0003021275A3E0FEC3940A40030212758F38
:1011EE00428E430216099000C8E064137065A3E0B6
:1011FE00B40700504D90120AF828287302124202CA
:10120E00121F02122302123202123602123A021276
:10121E003E754D0122754D027BFF7A2179547D0674
:10122E007C00802A754D0322754D0422754D0522D2
:10123E00754D0622E4F54D7BFF7A2179667D06FC1D
:10124E00800CE4F54D7BFF7A2179667D06FC7F10DC
:10125E00021D3E9000C8E0B4320D7F007E64122164
:07126E00E2E4FF0FBF08FCE2
:011275002256
:03002300021C4D6F
:101C4D00C0E0C0F0C083C082C0D075D000C000C05D
:0D1C5D0001C002C003C004C005C006C007DE
:101C6A0030983DC298E5517010E599F47034755179
:101C7A0001F50AF50BF5508029E599B4FF10755165
:101C8A0000E550B4030312103E755000801474C866
:101C9A002550F582E43400F583E599F00550800279
:021CAA00C299DD
:101CAC00D007D006D005D004D003D002D001D0008C
:0B1CBC00D0D0D082D083D0F0D0E03236
:101DA900C2ACE4F529F52AB2A4121FA7B2A5121FE5
:101DB900A7B2A6121FA7B2A7121FA7B287121FA701
:101DC900B286121FA7052AE52A70020529C39412B3
:101DD900E529940040D1E4F529F52AB2A4B2A5B2C7
:101DE900A6B2A7B287B2867FE87E03121FAB052A87
:101DF900E52A70020529C3940FE529940040DCD235
:051E0900A5D2A7D2865E
:011E0E0022B1
:081FA7007F5E7E017D007C00DD
:081FAF008F2E8E2D8D2C8C2B42
:101FB700782B74FF121411EC4D4E4F6013E4FAFBAB
:101FC700C3EB941AEA940450E70BBB00010A80F0B4
:011FD70022E7
:10002600404080F0804040000202010F01020200C1
:10003600404080F0804040000202010F01020200B1
:10004600404080F0804040000202010F01020200A1
:10005600404080F0804040000202010F0102020091
:100066001010D0FFFF90101010D0FFFFD01010100E
:10007600040703FFFF11190C0703FFFF03070C0812
:10008600202020202020FFFF30101117D6D010107E
:1000960000404040602031171E1C366341C0F0F01E
:1000A6001094D7733E3E7252107E7E42427E7E0090
:1000B600000000FFFF494949494949FFFF00000088
:1000C60008CCCE4B494ACEDC187FFF888C86E2E00E
:1000D60000FFFF1252D2FF7F007EFE888C86E2E090
:1000E600404080F0804040000202010F0102020001
:1000F600404080F0804040000202010F01020200F1
:10010600404080F0804040000202010F01020200E0
:10011600404080F0804040000202010F01020200D0
:10012600000000E0000000FF00000020408000000A
:10013600080403000040807F0000000000010E005C
:10014600808080808040FF404040202020200000AA
:100156000000000000003F40404040404078000062
:1001660080642C342424EC322222322E23A2600016
:100176000041219189874D552525554D8180800067
:100186000000FC444444FC45460444FC444444000A
:1001960040300F100C03FF02140806FF020C10007B
:1001A600001088864040202F509008020408000066
:1001B600010100FF555555557F55555555410000D0
:1001C600404042CC0040404040FF4040404040005C
:1001D6000000007F2010000000FF0000000000006B
:1001E60080828282FE8282828282FE828282800077
:1001F600008040300F0000000000FF0000000000FB
:100206000000181610D0B8979090909294100000A5
:100216000020108C838041462810284443808000AB
:100226000000F8494A4C48F8484C4A49F800000092
:1002360010101312121212FF1212121213101000C3
:10024600000000FE20202020203F2020202000004B
:100256000080601F020202020202FE00000000008F
:100266001010D0FF901000FE020202FE00000000F7
:10027600040300FF0083601F0000003F4040780039
:100286002424A4FE2322003E22222222223E000013
:10029600080601FF0106404949497F49494941008D
:1002A6000000FC0404041415569454341404040089
:1002B60040300F0001010141817F0101010503006A
:1002C60000F80C0B0808F840308F080808F8000002
:1002D600007F212121217F0000004380403F000054
:1002E600404042CC0040A09E8282829EA0202000F8
:1002F6000000003F908840432C1028464180800033
:10030600404042CC0040404040FF4040404040001A
:100316000000007F2010000000FF00000000000029
:100326000020222C2020E03F20202020E00000009A
:100336008040201008060100014680403F00000072
:1003460000020202020202E222120A060200000073
:10035600000000000040807F000000000000000058
:100366008040301E101010FF1010101010100000EA
:10037600404042424242427F424242424240400064
:100386001060028C0020242424FE22232220200038
:1003960004047E010000FE4242434242FE00000089
:1003A60000020202028242F20E42820202020000B1
:1003B60010080402010000FF00000001020C00000A
:1003C600001088C43300BEAAAAAAAAAABE8000004A
:1003D600020100FF00020A120242827F02020200AC
:1003E60000020202028242F20E4282020202000071
:1003F60010080402010000FF00000001020C0000CA
:100406008060F8078888FF888820D81710F01000C9
:100416000000FF003F1010109F4037083641800053
:1004260000000000000000000000000000000000C6
:1004360000000000000000000000000000000000B6
:1004460000000000000000000000000000000000A6
:100456000000000000000000000000000000000096
:100466000000000000000000000000000000000086
:100476000000000000000000000000000000000076
:100486000000000000000000000000000000000066
:100496000000000000000000000000000000000056
:1004A6000000000000000000000000000000000046
:1004B6000000000000000000000000000000000036
:1004C6000000000080E0380C06020202020202026E
:1004D6000202020404040C0808181010302060C040
:1004E600E030180C040602030101010101010101BB
:1004F60001010101010101010101010101010306DF
:100506000C78C000000000000000000000000000A1
:1005160000000000000000000000000000000000D5
:1005260000000000000000000000000000000000C5
:1005360000000000000000000000000000000000B5
:1005460000000000FF0000000000000000000000A6
:100556000000000000000000000000000000030191
:100566000100000000000000000000000000000084
:100576000000000000000000000000000000000075
:100586000000FF0000000000000000000000000066
:100596000000000000000000000000000000000055
:1005A6000000000000000000000000000000000045
:1005B6000000000000000000000000000000000035
:1005C60000000000000F38E080000000000000007E
:1005D6000000000000000000000000000000000015
:1005E6000000000000000000000000000000000005
:1005F6000000000000000000000000000000008075
:10060600C0701F0000000000000000000000000095
:1006160000000000000000000000000000000000D4
:1006260000000000000000000000000000000000C4
:1006360000000000000000000000000000000000B4
:100646000000000000000000010304183060C080B4
:100656000000000000000000000000000000000094
:100666000000000000000000000000000000000084
:100676000000000000000080C0406030180C060337
:100686000000000000000000000000000000000064
:100696000000000000000000000000000000000054
:1006A6000000000000000000000000000000000044
:1006B6000000000000000000000000000000000034
:1006C6000000000000000000000000000000000123
:1006D60003060C0810306040C08080000000000057
:1006E6000000000000008080C040406020203010E4
:1006F60018080C04060301010000000000000000B9
:1007060000000000000000000000000000000000E3
:1007160000000000000000000000000000000000D3
:1007260000000000000000000000000000000000C3
:1007360000000000000000000000000000000000B3
:1007460000000000000000000000000000000000A3
:100756000000000000000000000000010102020489
:100766000406020301010000000000000000000072
:100776000000000000000000000000000000000073
:100786000000000000000000000000000000000063
:100796000000000000000000000000000000000053
:1007A6000000000000000000000000000000000043
:1007B6000000000000000000000000000000000033
:1007C6000000000000000000000000000000000023
:1007D6000000000000000000000000000000000013
:1007E6000000000000000000000000000000000003
:1007F60000000000000000000000000000000000F3
:1008060000000000000000000000000000000000E2
:1008160000000000000000000000000000000000D2
:100826000000000000000000002F0000000007008C
:10083600070000147F147F1400242A7F2A12006206
:1008460064081323003649552250000005030000B2
:1008560000001C224100000041221C000014083E3A
:1008660008140008083E0808000000A06000000800
:100876000808080800006060000000201008040254
:10088600003E5149453E0000427F40000042615112
:100896004946002141454B31001814127F100027AC
:1008A60045454539003C4A4949300001710905036F
:1008B60000364949493600064949291E00003636A0
:1008C6000000000056360000000814224100001403
:1008D60014141414000041221408000201510906E0
:1008E60000324959513E007C1211127C007F494961
:1008F6004936003E41414122007F4141221C007F92
:1009060049494941007F09090901003E4149497A9F
:10091600007F0808087F0000417F41000020404119
:100926003F01007F08142241007F40404040007F85
:10093600020C027F007F0408107F003E4141413EC9
:10094600007F09090906003E4151215E007F091911
:1009560029460046494949310001017F0101003F0E
:100966004040403F001F2040201F003F4038403F8E
:1009760000631408146300070870080700615149F2
:10098600454300007F41410000552A552A55000085
:1009960041417F0000040201020400404040404003
:1009A600000001020400002054545478007F48449B
:1009B600443800384444442000384444487F0038D2
:1009C6005454541800087E0901020018A4A4A47CFB
:1009D600007F080404780000447D400000408084C5
:1009E6007D00007F102844000000417F4000007C0D
:1009F60004180478007C0804047800384444443819
:100A060000FC242424180018242418FC007C080464
:100A1600040800485454542000043F444020003C3D
:100A26004040207C001C2040201C003C4030403CC4
:100A3600004428102844001CA0A0A07C0044645454
:100A46004C44141414141414000000000000000098
:100A56000000000000000000000000F80000000098
:100A6600000000333000000000100C06100C0600D9
:100A7600000000000000000040C07840C078400040
:100A8600043F04043F040400007088FC08300000A2
:100A9600001820FF211E0000F008F000E0180000FA
:100AA60000211C031E211E0000F0088870000000B3
:100AB6001E2123241927211010160E000000000005
:100AC6000000000000000000000000E01804020022
:100AD600000000071820400000020418E000000093
:100AE6000040201807000000404080F08040400091
:100AF6000202010F01020200000000F000000000E7
:100B06000101011F010101000000000000000000BA
:100B160080B070000000000000000000000000002F
:100B260000010101010101010000000000000000B8
:100B36000030300000000000000000008060180453
:100B4600006018060100000000E010080810E00030
:100B5600000F102020100F00001010F800000000F9
:100B66000020203F20200000007008080888700040
:100B760000302824222130000030088888483000C0
:100B86000018202020110E000000C02010F80000E0
:100B960000070424243F240000F808888808080079
:100BA6000019212020110E0000E01088881800008E
:100BB600000F112020110E0000380808C838080060
:100BC6000000003F000000000070880808887000E0
:100BD600001C222121221C0000E010080810E00061
:100BE6000000312222110F00000000C0C0000000EA
:100BF600000000303000000000000080000000000F
:100C06000000806000000000000080402010080006
:100C160000010204081020004040404040404000CF
:100C260004040404040404000008102040800000AA
:100C36000020100804020100007048080808F000AF
:100C46000000003036010000C030C828E810E0007F
:100C56000718272423140B000000C038E00000000A
:100C6600203C23020227382008F888888870000074
:100C7600203F202020110E00C03008080808380048
:100C8600071820202010080008F808080810E000BF
:100C9600203F202020100F0008F88888E808100060
:100CA600203F20202320180008F88888E808100034
:100CB600203F200003000000C0300808083800006C
:100CC60007182020221E020008F808000008F8086D
:100CD600203F210101213F20000808F808080000F4
:100CE6000020203F2020000000000808F808080027
:100CF600C08080807F00000008F888C0281808009F
:100D0600203F20012638200008F8080000000000D7
:100D1600203F20202020300008F8F800F8F80800CE
:100D2600203F003F003F200008F830C00008F808C8
:100D3600203F200007183F00E01008080810E000D8
:100D46000F10202020100F0008F808080808F000EF
:100D5600203F210101010000E01008080810E00012
:100D66000F18242438504F0008F8888888887000A7
:100D7600203F2000030C3020007088080808380047
:100D86000038202121221C00180808F8080818003D
:100D96000000203F2000000008F808000008F808BE
:100DA600001F202020201F000878880000C838086F
:100DB600000007380E010000F80800F80008F800E7
:100DC600033C0700073C0300081868808068180881
:100DD60020302C03032C30200838C800C8380800FF
:100DE6000000203F2000000010080808C83808004E
:100DF6002038262120201800000000FE02020200F2
:100E06000000007F40404000000C30C000000000A1
:100E1600000000010638C00000020202FE000000C9
:100E2600004040407F00000000000402020204006F
:100E360000000000000000000000000000000000AC
:100E46008080808080808080000202040000000094
:100E5600000000000000000000008080808000008C
:100E66000019242222223F2008F80080800000007A
:100E7600003F112020110E0000000080808000003D
:100E8600000E112020201100000000808088F8004C
:100E9600000E112020103F2000008080808000007E
:100EA600001F222222221300008080F088888818E2
:100EB6000020203F202000000000808080808000ED
:100EC600006B94949493600008F800808080000082
:100ED600203F210000203F2000809898000000005D
:100EE6000020203F2020000000000080989800008D
:100EF60000C08080807F000008F8000080808000AD
:100F0600203F24022D302000000808F800000000D1
:100F16000020203F2020000080808080808080008C
:100F2600203F20003F20003F80800080808000001E
:100F3600203F210000203F200000808080800000AC
:100F4600001F202020201F008080008080000000DD
:100F560080FFA12020110E0000000080808080000C
:100F6600000E112020A0FF808080800080808000FD
:100F760020203F212000010000008080808080002A
:100F86000033242424241900008080E0808000009F
:100F96000000001F202000008080000000808000EC
:100FA600001F202020103F2080808000008080804D
:100FB60000010E30080601008080008000808080DD
:100FC6000F300C030C300F00008080008080800002
:100FD6000020312E0E31200080808000008080802D
:100FE60080818E70180601000080808080808000DD
:100FF6000021302C2221300000000000807C0202FB
:1010060000000000003F404000000000FF0000001C
:1010160000000000FF0000000002027C80000000CB
:101026000040403F000000000006010102020404E7
:081036000000000000000000B2
:10226000EF4E60157D087C07ED1DAA0470011C4A25
:0922700070F6EF1F70EA1E80E712
:012279002242
:0D20360074262BF58274003AF583E493FFC5
:10204300D292E4FEEFA806088002C333D8FC30E73F
:0F20530004D2938002C293C294D2940EBE08E5C9
:01206200225B
:0D20630024B0FF1220707F011220707F104A
:10207000C292E4FEEFA806088002C333D8FC30E722
:0F20800004D2938002C293C294D2940EBE08E59C
:01208F00222E
:10222500AC07ED24B0FF122070EC54F0C4540F44F9
:0E22350010FF122070EC540F4401FF022070C5
:02227A00AD07AE
:10227C00E4FCEC122063E4FBAF051220430BBB80A3
:05228C00F70CBC08ED99
:01229100222A
:1022A900E4FDED122063E4FCE4FF1220430CBC8042
:0522B900F70DBD08ED6A
:0122BE0022FD
:1016DC00C290D294C2917F327E00122260D2917F4E
:1016EC00AE122070E4FF12206B7F401220707F81BD
:1016FC001220707FCF1220707FA11220707FC81231
:10170C0020707FA61220707FA81220707F3F1220BD
:10171C00707FD3122070E4FF1220707FD5122070DE
:10172C007F801220707FD91220707FF11220707F81
:10173C00DA1220707F121220707FDB1220707F4033
:10174C001220707F201220707F021220707F8D1269
:10175C0020707F141220707FA41220707FA612209C
:10176C00707FAF122070E4FF12227AE4FDFF022298
:01177C002547
:0C1D3E008F298C2A8D2B8B2C8A2D892E4E
:101D4A00E4F52FF530AB2CAA2DA92E8530827583A8
:101D5A000012128F604824E0F52FE529D3947E40C3
:101D6A000BE4F529052BE52B7002052AAD2BAF29CB
:101D7A00122225E4FD75F006E52FA42426F582E556
:101D8A00F03408F583E5822DF582E4358312203E8E
:0E1D9A000DBD06E174062529F529053080A748
:011DA8002218
:0C177D008F298C2A8D2B8B2C8A2D892E15
:10178900E4F52FF530AB2CAA2DA92E85308275836F
:101799000012128F607324E0F52FE529D394784065
:1017A9000BE4F529052BE52B7002052AAD2BAF2992
:1017B900122225E4FD75F010E52FA42DF582E435FC
:1017C900F0F583E582244EF582E583340A12203E42
:1017D9000DBD08E1E52B04FDAF29122225E4FD75B5
:1017E900F010E52FA42DF582E435F0F583E5822488
:1017F90056F582E583340A12203E0DBD08E17408CE
:091809002529F529053002178E8E
:0118120022B3
:061EF8008C528D53A90776
:101EFE00E4FDEBAE027805C333CE33CED8F9FBAAA0
:101F0E0006AF01AD53122225E4FD1220360BBB00A5
:101F1E00010A0DBD10F4AF01E55304FD122225E4B4
:0D1F2E00FD1220360BBB00010A0DBD10F4A2
:011F3B002283
:0A1AD0008F318C328D338A348B3550
:101ADA00E4F53BF53CAE36AF37FC7D081212BCED9F
:101AEA004CAE36AF37700AFC7D081212BC8F3D80AF
:101AFA000B7C007D081212BCEF04F53D85333DC313
:101B0A00E53D9537E5366480F8748098503AAD3DE6
:101B1A00AF31122225AD31EDC39535E5346480F835
:101B2A00748098501FAB38AA39A93A053CE53CAEF7
:101B3A003B7002053B14F5828E8312128FFF12202E
:081B4A00430D80D3053D80B777
:011B52002270
:10148400D2A4D2A5D2A6D2A7D287D286C200C2A2A3
:10149400C2A4D2A5E4F546F547F548D2B220B2FD80
:1014A400D201538EBFE4F58DF58B758CA9758A9A9C
:1014B400C3E54894C8E54794005056E4F58DF58B90
:1014C40030B2FDAF46054674002FF582E43400F5D2
:1014D40083E58BF0AF46054674002FF582E43400B3
:1014E400F583E58DF0E4F58DF58B20B2FDAF46056F
:1014F4004674002FF582E43400F583E58BF0AF46A3
:10150400054674002FF582E43400F583E58DF08000
:101514009FE4F546E546C394C840030215BF740131
:101524002546F582E43400F583E0FE74002546F593
:1015340082E43400F583E07C002400FFEC3ECF24F9
:101544004CCF34FF753E008F3FF541754000740069
:101554002546F582E43400F583EFF074012546F561
:1015640082E43400F583E541F074032546F582E412
:101574003400F583E0FE74022546F582E43400F578
:1015840083E02400FFEC3ECF248CCF3400753E0072
:101594008F3FF54175400074022546F582E434001E
:1015A400F583EFF074032546F582E43400F583E512
:1015B40041F074042546F546021518E54275F00A13
:1015C400A47C002543FFEF75450025E0F544AF45B5
:1015D400FE1221E2E4F5467E00E5452546FFEE35A0
:1015E40044FE74002546F582E43400F583E0FD12E0
:1015F400219C0546E546C394C840DCD2A4C2A5C2DA
:0516040001438E4022AD
:10160900D2A7C287D286D201538EBFD200E54275D6
:10161900F00AA47C002543FFEF75450025E0F54459
:10162900E4F5467E00E5452546FFEE3544FE1221E8
:101639007874002546F582E43400F583EFF0054619
:10164900E546C394C840DC758CFF758A05E4F54608
:10165900F547F548C3E5489460E547943B5068E48D
:10166900F58DF58B74002546F582E43400F583E0A9
:10167900FFE58BC39F401374012546F582E43400CE
:10168900F583E0FFE58DC39F5004D20280D605465D
:101699000546E4F58DF58B74002546F582E43400A2
:1016A900F583E0FFE58BC39F401374012546F5825E
:1016B900E43400F583E0FFE58DC39F5004C2028046
:1016C900D605460546808DC201438E40C2A7D28702
:0316D900C28622A4
:1020E20020000F758CA9758A9A0548E54870190574
:1020F2004722758CFF758A050548E5487002054739
:09210200300203B2A222C2A222A3
:10217800AD07AC068CC3EDF5C453C5F843C5015390
:10218800C71843C70243C78075C65A75C6A553C743
:042198007FAFC22231
:10219C00AB07AA068AC3EBF5C453C5F843C5028D39
:1021AC00C253C71843C70243C78075C65A75C6A524
:0421BC0053C77F2264
:1021E200AD07AC068CC3EDF5C453C5F843C5035324
:1021F200C71843C70143C78075C65A75C6A553C7DA
:022202007F2239
:03000000021937AB
:0C193700787FE4F6D8FD75815402197E1B
:10127600BB010689828A83E0225002E722BBFE0276
:09128600E32289828A83E49322A9
:10128F00BB010CE58229F582E5833AF583E0225014
:10129F0006E92582F8E622BBFE06E92582F8E2225E
:0D12AF00E58229F582E5833AF583E4932278
:1012BC00C2D5EC30E709B2D5E4C39DFDE49CFCEE4D
:1012CC0030E715B2D5E4C39FFFE49EFE12142FC382
:1012DC00E49DFDE49CFC800312142F30D507C3E47D
:0612EC009FFFE49EFE22BC
:1012F200E88FF0A4CC8BF0A42CFCE98EF0A42CFC9B
:101302008AF0EDA42CFCEA8EF0A4CDA8F08BF0A418
:101312002DCC3825F0FDE98FF0A42CCD35F0FCEB77
:101322008EF0A4FEA9F0EB8FF0A4CFC5F02ECD393C
:0F133200FEE43CFCEAA42DCE35F0FDE43CFC22A9
:1013410075F008758200EF2FFFEE33FECD33CDCC63
:1013510033CCC58233C5829BED9AEC99E5829840E6
:101361000CF582EE9BFEED9AFDEC99FC0FD5F0D6C3
:10137100E4CEFBE4CDFAE4CCF9A88222B800C1B9ED
:101381000059BA002DEC8BF084CFCECDFCE5F0CB2B
:10139100F97818EF2FFFEE33FEED33FDEC33FCEB64
:1013A10033FB10D703994004EB99FB0FD8E5E4F91F
:1013B100FA227818EF2FFFEE33FEED33FDEC33FC0C
:1013C100C933C910D7059BE99A4007EC9BFCE99A00
:1013D100F90FD8E0E4C9FAE4CCFB2275F010EF2F45
:1013E100FFEE33FEED33FDCC33CCC833C810D70745
:1013F1009BEC9AE899400AED9BFDEC9AFCE899F880
:0E1401000FD5F0DAE4CDFBE4CCFAE4C8F92212
:10140F007401FF3395E0FEFDFC080808E6CF2FF6C8
:10141F0018E6CE3EF618E6CD3DF618E6CC3CF622A1
:10194300021813E493A3F8E493A34003F68001F28F
:1019530008DFF48029E493A3F85407240CC8C333A5
:10196300C4540F4420C8834004F456800146F6DF74
:10197300E4800B0102040810204080901FD8E47E0D
:10198300019360BCA3FF543F30E509541FFEE49369
:10199300A360010ECF54C025E060A840B8E493A330
:1019A300FAE493A3F8E493A3C8C582C8CAC583CA5B
:1019B300F0A3C8C582C8CAC583CADFE9DEE780BE13
:0120070000D8
:10142F00BC000BBE0029EF8DF084FFADF022E4CCA1
:10143F00F875F008EF2FFFEE33FEEC33FCEE9DEC6A
:10144F00984005FCEE9DFE0FD5F0E9E4CEFD22EDB0
:10145F00F8F5F0EE8420D21CFEADF075F008EF2FFA
:10146F00FFED33FD4007985006D5F0F222C398FDEB
:05147F000FD5F0EA2288
:00000001FF
