:101E0000466172536967687400536D617274204350
:101E1000617200496E697469616C697A696E672ED6
:101E20002E2E2E2E00576F726B696E672120202098
:071E300020202020202000EB
:101C30001216997BFF7A1E7900E4FDFC7F1E1217B5
:101C40003A7BFF7A1E79097D027C007F1912173AD0
:101C50007BFF7A1E79137D067C007F10121B5F12BA
:101C60000003120006121BCA1221411221901222F7
:101C70000D1221BD1220507BFF7A1E79257D067C36
:0B1C8000007F10121B5F121D3180FB63
:061ED300014D00014E006C
:0821E7008F2C8E2B8D2A8C2910
:0A21EF00EF1FAC0670011E4C70F6E5
:0121F90022C3
:1021BD00D281D284C280C282C283C285D2A4D2A56A
:0521CD00D2A6D2A722FA
:1019F700E54F24FE601C14602B14603424037040F0
:101A0700C280D282D283C285D2A4D2A5C2A6D2A7CF
:101A1700802ED280C282C283D285D2A4D2A5D2A67A
:101A2700C2A7801CD280C282D283C285C2A4800A88
:101A3700C280C282C283C285D2A4D2A5D2A6D2A7AF
:101A470030A02520B70620B303754F0420B7063012
:101A5700B303754F0130B70620B303754F0230B794
:0C1A67000A30B307754F0322754F0422AC
:101AED00E54F24FE601F14602E14603714604224ED
:101AFD0004704EC280D282D283C285D2A4D2A5C236
:101B0D00A6D2A7803CD280C282C283D285D2A4D273
:101B1D00A5D2A6C2A7802AD280C282D283C285C294
:101B2D00A4800AC280C282C283C285D2A4D2A580FB
:101B3D000CC280D282C283D285D2A4C2A5D2A6D233
:101B4D00A720A30620B70320A004754F0422754FCC
:021B5D00032261
:1018EC00750E00750F647FE87E037D007C00121F6F
:1018FC00B37510007511467FE87E037D007C0012E5
:10190C001FB375120075133C7FE87E037D007C00CD
:10191C00121FB37514007515327FE87E037D007CB1
:10192C0000121FB37514007515517FE87E037D00FE
:10193C007C00121FB37512007513A07FE87E037D27
:10194C00007C00121FB37510007511787FE87E03C0
:10195C007D007C00121FB3750E00750F8C7FE87E26
:08196C00037D007C00021FB3A3
:10210200B2A2751C00751DAA7FE87E037D007C00CB
:10211200121FB3E4F51CF51D7FE87E03FDFC021FD0
:01212200B309
:1021FA00D2B5E4FFFE0FBF00010EEF64964E70F5F4
:02220A00C2B55B
:01220C0022AF
:1017D000E4F52CF52BF52AF5291221FAE4F58DF51F
:1017E0008BE58DC394FA500330B4F6E58DD394FAAB
:1017F000506DE4F58DF58B20B4FDAF8DE48F2CF5A5
:101800002BF52AF529AE2BAD2AAC29FB7A01F9F884
:101810001210BA8F2C8E2B8D2A8C29AF8BE4FCFDF5
:10182000FEE52C2FF52CEE352BF52BED352AF52A80
:10183000EC3529F529AF2CAE2BAD2AFCE47B11FA4F
:10184000F9F81210BA8F2C8E2B8D2A8C29E47B6626
:0F1850007A56F9F81211458F2C8E2B8D2A8C2980
:01185F002266
:101F03001217D0EFC3940A5002801E30B303021E8F
:101F130037309503021E6E30A30302221E30B7032F
:0D1F230002222D30A103021C8B1222692224
:102005001217D0EFC3941A500CC280C282C283C289
:1020150085D2A4800AD280C282D283C285C2A4D2CC
:06202500A5D2A6D2A722FD
:10202B007FFF1222777F03122277E4FF12227712AF
:10203B0017D01222777FFF1222777FE87E037D0075
:05204B007C00021FB340
:101D3100E54E654D6017E54E6010C280C282C283D8
:101D4100C285D2A4D2A5D2A6D2A7854D4EE54D24F7
:101D5100FE601314601314601314601314601324D1
:101D61000570120219F7021F03021AED0220050283
:061D710018EC1221022211
:081F8A008F4C8E4B8D4A8C49EF
:101F9200784974FF1211D9EC4D4E4F6013E4FAFBED
:101FA200C3EB941AEA940450E70BBB00010A80F0D9
:011FB200220C
:03000300C2B62260
:03000600C2A22271
:0F221E00750D14750C3CD280C282D283C285220A
:0F222D00750D3C750C14D280C282D283C28522FB
:0F223C00750D3C750C3CD280C282C283D28522C4
:0F224B00750D3C750C3CC280D282D283C28522B5
:0F225A00750D3C750C3CD280C282D283C28522A6
:0E226900E4F50DF50CC280C282C283C285224C
:101C8B0012225A30B3028024309502802530A310E3
:101C9B0030A34212221E30B30280113095F2801213
:101CAB0030B71230B72F12222D30B303021E37304C
:101CBB0095F1021E6E20951D20A31A20A11720B7A7
:101CCB001420B31112225A20B70512224B80F83080
:051CDB00A103121C8BA7
:011CE00022E1
:101E370012225A7FA07E097D017C001221E730A182
:101E47001612224B7F787E697D007C001221E720E5
:101E5700A1F220B71180FB20A10C12224B30B7FD55
:061E670030B303121C8BD6
:011E6D002252
:101E6E0030950530B3FA800E7FF47E017D007C0044
:101E7E001221E730B303021E3720A10620A3033040
:101E8E00B703021C8B20A30512223C80F830950369
:031E9E00121C8B88
:011EA100221E
:101ED900011E00011F00010D50010C50020A0000F3
:101EE900100E002D002D002D002D002D002D002D90
:061EF900002D02080000AC
:081FB3008F2C8E2B8D2A8C2946
:101FBB00782974FF1211D9EC4D4E4F6013E4FAFBE4
:101FCB00C3EB941AEA940450E70BBB00010A80F0B0
:011FDB0022E3
:102190005389F0438901438EC043B802758CFF75A3
:0721A0008ABED28CD2A922F5
:10220D00D2AB53890F438910758DA9758B9AD28ED8
:01221D00229E
:03000B00021D775C
:101D7700C0E0C0D0051E051FE51ED3950D5004D247
:101D8700818002C281E51ED394644005D281751E0D
:101D970000E51FD3950C5004D2848002C284E51F4E
:101DA700D394644005D284751F00758CFF758ABE75
:051DB700D0D0D0E032A5
:03001B00021CE1E3
:091CE100C0E0C0D075D000C006BF
:101CEA00758DA9758B9A050BE50B7002050AB4E888
:101CFA000CE50AB40307E55160037551000509E5CF
:101D0A0009AE087002050814C394E8EE9403401063
:101D1A00750800750900E5516004B2878002D28710
:071D2A00D006D0D0D0E0325A
:10205000E4F529E42529FFE43464FE122098E529FB
:1020600025E0240EF8760008A6070529E529C39483
:032070000840E045
:01207300224A
:102074004D6F64653A466F6C6C6F77204C696E6582
:1020840020004D6F64653A4E6F726D616C202020A4
:0420940020202000E8
:031EFF000151008E
:10214100438780759850759C70438E04438E01437C
:0D2151008E10D2ACD2AFD299C2A8C2AA2281
:0E227700C2ACC2998F993099FDD299D2AC2297
:1021D200ED601112103EFF122277740129F9E43AE0
:0521E200FA1D80EC2253
:10124C009000C8E0FF7062A3E0604D24FE601914AA
:10125C00602414603224036003021440D280C282E2
:10126C00D283C285C2A4803AC280D282C283D28584
:10127C00D2A4C2A5802ED280C282C283D285D2A42F
:10128C00D2A5D2A6C2A722C280D282D283C285D2D4
:10129C00A4D2A5C2A6D2A722C280C282C283C28512
:1012AC00D2A4D2A5D2A6D2A722EF64016003021366
:1012BC00499000CAE0FFD394B4400302144090005C
:1012CC00C9E014B4080040030214409012E575F014
:1012DC0003A4C58325F0C583730212FD0213030218
:1012EC00130D02131702132102132B0213350213D1
:1012FC003F750E008F0F229000CAE0751000F5119B
:10130C00229000CAE0751200F513229000CAE07515
:10131C001400F515229000CAE0751600F5172290FE
:10132C0000CAE0751800F519229000CAE0751A0081
:10133C00F51B229000CAE0751C00F51D229000C818
:10134C00E0FFB40410A3E06009146003021440D25F
:10135C00B622C2B622EFB405129000C9E06009149F
:10136C006003021440D2A222C2A2229000C8E0B4B0
:10137C00501DA3E0FFC394054003021440A3E0FEFC
:10138C00C3940A40030214408F428E4302144190CE
:10139C0000C8E0B4511DA3E0FFC394054003021440
:1013AC0040A3E0FEC3940A40030214408F428E43D4
:1013BC000215C69000C8E064137065A3E0B4070082
:1013CC00504D9013D5F828287302140D0213EA021D
:1013DC0013EE0213FD021401021405021409754DDB
:1013EC000122754D027BFF7A2079747D067C00808A
:1013FC002A754D0322754D0422754D0522754D0637
:10140C0022E4F54D7BFF7A2079867D06FC800CE486
:10141C00F54D7BFF7A2079867D06FC7F10021B5FE1
:10142C009000C8E0B4320D7F007E641220E0E4FF2F
:04143C000FBF08FCDA
:011440002289
:03002300021A734B
:101A7300C0E0C0F0C083C082C0D075D000C000C039
:0D1A830001C002C003C004C005C006C007BA
:101A900030983DC298E5517010E599F47034755155
:101AA00001F50AF50BF5508029E599B4FF10755141
:101AB00000E550B4030312124C755000801474C832
:101AC0002550F582E43400F583E599F00550800255
:021AD000C299B9
:101AD200D007D006D005D004D003D002D001D00068
:0B1AE200D0D0D082D083D0F0D0E03212
:101BCA00C2ACE4F529F52AB2A4121EA2B2A5121ECD
:101BDA00A2B2A6121EA2B2A7121EA2B287121EA2F9
:101BEA00B286121EA2052AE52A70020529C394129A
:101BFA00E529940040D1E4F529F52AB2A4B2A5B2A8
:101C0A00A6B2A7B287B2867FE87E03121EA6052A6D
:101C1A00E52A70020529C3940FE529940040DCD215
:051C2A00A5D2A7D2863F
:011C2F002292
:081EA2007F5E7E017D007C00E3
:081EAA008F2E8E2D8D2C8C2B48
:101EB200782B74FF1211D9EC4D4E4F6013E4FAFBEC
:101EC200C3EB941AEA940450E70BBB00010A80F0BA
:011ED20022ED
:10002600404080F0804040000202010F01020200C1
:10003600404080F0804040000202010F01020200B1
:10004600404080F0804040000202010F01020200A1
:10005600404080F0804040000202010F0102020091
:100066001010D0FFFF90101010D0FFFFD01010100E
:10007600040703FFFF11190C0703FFFF03070C0812
:10008600202020202020FFFF30101117D6D010107E
:1000960000404040602031171E1C366341C0F0F01E
:1000A6001094D7733E3E7252107E7E42427E7E0090
:1000B600000000FFFF494949494949FFFF00000088
:1000C60008CCCE4B494ACEDC187FFF888C86E2E00E
:1000D60000FFFF1252D2FF7F007EFE888C86E2E090
:1000E600404080F0804040000202010F0102020001
:1000F600404080F0804040000202010F01020200F1
:10010600404080F0804040000202010F01020200E0
:10011600404080F0804040000202010F01020200D0
:10012600000000E0000000FF00000020408000000A
:10013600080403000040807F0000000000010E005C
:10014600808080808040FF404040202020200000AA
:100156000000000000003F40404040404078000062
:1001660080642C342424EC322222322E23A2600016
:100176000041219189874D552525554D8180800067
:100186000000FC444444FC45460444FC444444000A
:1001960040300F100C03FF02140806FF020C10007B
:1001A600001088864040202F509008020408000066
:1001B600010100FF555555557F55555555410000D0
:1001C600404042CC0040404040FF4040404040005C
:1001D6000000007F2010000000FF0000000000006B
:1001E60080828282FE8282828282FE828282800077
:1001F600008040300F0000000000FF0000000000FB
:100206000000181610D0B8979090909294100000A5
:100216000020108C838041462810284443808000AB
:100226000000F8494A4C48F8484C4A49F800000092
:1002360010101312121212FF1212121213101000C3
:10024600000000FE20202020203F2020202000004B
:100256000080601F020202020202FE00000000008F
:100266001010D0FF901000FE020202FE00000000F7
:10027600040300FF0083601F0000003F4040780039
:100286002424A4FE2322003E22222222223E000013
:10029600080601FF0106404949497F49494941008D
:1002A6000000FC0404041415569454341404040089
:1002B60040300F0001010141817F0101010503006A
:1002C60000F80C0B0808F840308F080808F8000002
:1002D600007F212121217F0000004380403F000054
:1002E600404042CC0040A09E8282829EA0202000F8
:1002F6000000003F908840432C1028464180800033
:10030600404042CC0040404040FF4040404040001A
:100316000000007F2010000000FF00000000000029
:100326000020222C2020E03F20202020E00000009A
:100336008040201008060100014680403F00000072
:1003460000020202020202E222120A060200000073
:10035600000000000040807F000000000000000058
:100366008040301E101010FF1010101010100000EA
:10037600404042424242427F424242424240400064
:100386001060028C0020242424FE22232220200038
:1003960004047E010000FE4242434242FE00000089
:1003A60000020202028242F20E42820202020000B1
:1003B60010080402010000FF00000001020C00000A
:1003C600001088C43300BEAAAAAAAAAABE8000004A
:1003D600020100FF00020A120242827F02020200AC
:1003E60000020202028242F20E4282020202000071
:1003F60010080402010000FF00000001020C0000CA
:100406008060F8078888FF888820D81710F01000C9
:100416000000FF003F1010109F4037083641800053
:1004260000000000000000000000000000000000C6
:1004360000000000000000000000000000000000B6
:1004460000000000000000000000000000000000A6
:100456000000000000000000000000000000000096
:100466000000000000000000000000000000000086
:100476000000000000000000000000000000000076
:100486000000000000000000000000000000000066
:100496000000000000000000000000000000000056
:1004A6000000000000000000000000000000000046
:1004B6000000000000000000000000000000000036
:1004C6000000000080E0380C06020202020202026E
:1004D6000202020404040C0808181010302060C040
:1004E600E030180C040602030101010101010101BB
:1004F60001010101010101010101010101010306DF
:100506000C78C000000000000000000000000000A1
:1005160000000000000000000000000000000000D5
:1005260000000000000000000000000000000000C5
:1005360000000000000000000000000000000000B5
:1005460000000000FF0000000000000000000000A6
:100556000000000000000000000000000000030191
:100566000100000000000000000000000000000084
:100576000000000000000000000000000000000075
:100586000000FF0000000000000000000000000066
:100596000000000000000000000000000000000055
:1005A6000000000000000000000000000000000045
:1005B6000000000000000000000000000000000035
:1005C60000000000000F38E080000000000000007E
:1005D6000000000000000000000000000000000015
:1005E6000000000000000000000000000000000005
:1005F6000000000000000000000000000000008075
:10060600C0701F0000000000000000000000000095
:1006160000000000000000000000000000000000D4
:1006260000000000000000000000000000000000C4
:1006360000000000000000000000000000000000B4
:100646000000000000000000010304183060C080B4
:100656000000000000000000000000000000000094
:100666000000000000000000000000000000000084
:100676000000000000000080C0406030180C060337
:100686000000000000000000000000000000000064
:100696000000000000000000000000000000000054
:1006A6000000000000000000000000000000000044
:1006B6000000000000000000000000000000000034
:1006C6000000000000000000000000000000000123
:1006D60003060C0810306040C08080000000000057
:1006E6000000000000008080C040406020203010E4
:1006F60018080C04060301010000000000000000B9
:1007060000000000000000000000000000000000E3
:1007160000000000000000000000000000000000D3
:1007260000000000000000000000000000000000C3
:1007360000000000000000000000000000000000B3
:1007460000000000000000000000000000000000A3
:100756000000000000000000000000010102020489
:100766000406020301010000000000000000000072
:100776000000000000000000000000000000000073
:100786000000000000000000000000000000000063
:100796000000000000000000000000000000000053
:1007A6000000000000000000000000000000000043
:1007B6000000000000000000000000000000000033
:1007C6000000000000000000000000000000000023
:1007D6000000000000000000000000000000000013
:1007E6000000000000000000000000000000000003
:1007F60000000000000000000000000000000000F3
:1008060000000000000000000000000000000000E2
:1008160000000000000000000000000000000000D2
:100826000000000000000000002F0000000007008C
:10083600070000147F147F1400242A7F2A12006206
:1008460064081323003649552250000005030000B2
:1008560000001C224100000041221C000014083E3A
:1008660008140008083E0808000000A06000000800
:100876000808080800006060000000201008040254
:10088600003E5149453E0000427F40000042615112
:100896004946002141454B31001814127F100027AC
:1008A60045454539003C4A4949300001710905036F
:1008B60000364949493600064949291E00003636A0
:1008C6000000000056360000000814224100001403
:1008D60014141414000041221408000201510906E0
:1008E60000324959513E007C1211127C007F494961
:1008F6004936003E41414122007F4141221C007F92
:1009060049494941007F09090901003E4149497A9F
:10091600007F0808087F0000417F41000020404119
:100926003F01007F08142241007F40404040007F85
:10093600020C027F007F0408107F003E4141413EC9
:10094600007F09090906003E4151215E007F091911
:1009560029460046494949310001017F0101003F0E
:100966004040403F001F2040201F003F4038403F8E
:1009760000631408146300070870080700615149F2
:10098600454300007F41410000552A552A55000085
:1009960041417F0000040201020400404040404003
:1009A600000001020400002054545478007F48449B
:1009B600443800384444442000384444487F0038D2
:1009C6005454541800087E0901020018A4A4A47CFB
:1009D600007F080404780000447D400000408084C5
:1009E6007D00007F102844000000417F4000007C0D
:1009F60004180478007C0804047800384444443819
:100A060000FC242424180018242418FC007C080464
:100A1600040800485454542000043F444020003C3D
:100A26004040207C001C2040201C003C4030403CC4
:100A3600004428102844001CA0A0A07C0044645454
:100A46004C44141414141414000000000000000098
:100A56000000000000000000000000F80000000098
:100A6600000000333000000000100C06100C0600D9
:100A7600000000000000000040C07840C078400040
:100A8600043F04043F040400007088FC08300000A2
:100A9600001820FF211E0000F008F000E0180000FA
:100AA60000211C031E211E0000F0088870000000B3
:100AB6001E2123241927211010160E000000000005
:100AC6000000000000000000000000E01804020022
:100AD600000000071820400000020418E000000093
:100AE6000040201807000000404080F08040400091
:100AF6000202010F01020200000000F000000000E7
:100B06000101011F010101000000000000000000BA
:100B160080B070000000000000000000000000002F
:100B260000010101010101010000000000000000B8
:100B36000030300000000000000000008060180453
:100B4600006018060100000000E010080810E00030
:100B5600000F102020100F00001010F800000000F9
:100B66000020203F20200000007008080888700040
:100B760000302824222130000030088888483000C0
:100B86000018202020110E000000C02010F80000E0
:100B960000070424243F240000F808888808080079
:100BA6000019212020110E0000E01088881800008E
:100BB600000F112020110E0000380808C838080060
:100BC6000000003F000000000070880808887000E0
:100BD600001C222121221C0000E010080810E00061
:100BE6000000312222110F00000000C0C0000000EA
:100BF600000000303000000000000080000000000F
:100C06000000806000000000000080402010080006
:100C160000010204081020004040404040404000CF
:100C260004040404040404000008102040800000AA
:100C36000020100804020100007048080808F000AF
:100C46000000003036010000C030C828E810E0007F
:100C56000718272423140B000000C038E00000000A
:100C6600203C23020227382008F888888870000074
:100C7600203F202020110E00C03008080808380048
:100C8600071820202010080008F808080810E000BF
:100C9600203F202020100F0008F88888E808100060
:100CA600203F20202320180008F88888E808100034
:100CB600203F200003000000C0300808083800006C
:100CC60007182020221E020008F808000008F8086D
:100CD600203F210101213F20000808F808080000F4
:100CE6000020203F2020000000000808F808080027
:100CF600C08080807F00000008F888C0281808009F
:100D0600203F20012638200008F8080000000000D7
:100D1600203F20202020300008F8F800F8F80800CE
:100D2600203F003F003F200008F830C00008F808C8
:100D3600203F200007183F00E01008080810E000D8
:100D46000F10202020100F0008F808080808F000EF
:100D5600203F210101010000E01008080810E00012
:100D66000F18242438504F0008F8888888887000A7
:100D7600203F2000030C3020007088080808380047
:100D86000038202121221C00180808F8080818003D
:100D96000000203F2000000008F808000008F808BE
:100DA600001F202020201F000878880000C838086F
:100DB600000007380E010000F80800F80008F800E7
:100DC600033C0700073C0300081868808068180881
:100DD60020302C03032C30200838C800C8380800FF
:100DE6000000203F2000000010080808C83808004E
:100DF6002038262120201800000000FE02020200F2
:100E06000000007F40404000000C30C000000000A1
:100E1600000000010638C00000020202FE000000C9
:100E2600004040407F00000000000402020204006F
:100E360000000000000000000000000000000000AC
:100E46008080808080808080000202040000000094
:100E5600000000000000000000008080808000008C
:100E66000019242222223F2008F80080800000007A
:100E7600003F112020110E0000000080808000003D
:100E8600000E112020201100000000808088F8004C
:100E9600000E112020103F2000008080808000007E
:100EA600001F222222221300008080F088888818E2
:100EB6000020203F202000000000808080808000ED
:100EC600006B94949493600008F800808080000082
:100ED600203F210000203F2000809898000000005D
:100EE6000020203F2020000000000080989800008D
:100EF60000C08080807F000008F8000080808000AD
:100F0600203F24022D302000000808F800000000D1
:100F16000020203F2020000080808080808080008C
:100F2600203F20003F20003F80800080808000001E
:100F3600203F210000203F200000808080800000AC
:100F4600001F202020201F008080008080000000DD
:100F560080FFA12020110E0000000080808080000C
:100F6600000E112020A0FF808080800080808000FD
:100F760020203F212000010000008080808080002A
:100F86000033242424241900008080E0808000009F
:100F96000000001F202000008080000000808000EC
:100FA600001F202020103F2080808000008080804D
:100FB60000010E30080601008080008000808080DD
:100FC6000F300C030C300F00008080008080800002
:100FD6000020312E0E31200080808000008080802D
:100FE60080818E70180601000080808080808000DD
:100FF6000021302C2221300000000000807C0202FB
:1010060000000000003F404000000000FF0000001C
:1010160000000000FF0000000002027C80000000CB
:101026000040403F000000000006010102020404E7
:081036000000000000000000B2
:10215E00EF4E60157D087C07ED1DAA0470011C4A28
:09216E0070F6EF1F70EA1E80E715
:012177002245
:0D1F300074262BF58274003AF583E493FFCC
:101F3D00D292E4FEEFA806088002C333D8FC30E746
:0F1F4D0004D2938002C293C294D2940EBE08E5D0
:011F5C002262
:0D1F5D0024B0FF121F6A7F01121F6A7F105F
:101F6A00C292E4FEEFA806088002C333D8FC30E729
:0F1F7A0004D2938002C293C294D2940EBE08E5A3
:011F89002235
:10212300AC07ED24B0FF121F6AEC54F0C4540F4403
:0E21330010FF121F6AEC540F4401FF021F6AD6
:02217800AD07B1
:10217A00E4FCEC121F5DE4FBAF05121F3D0BBB80B4
:05218A00F70CBC08ED9C
:01218F00222D
:1021A700E4FDED121F5DE4FCE4FF121F3D0CBC8053
:0521B700F70DBD08ED6D
:0121BC002200
:10169900C290D294C2917F327E0012215ED2917F94
:1016A900AE121F6AE4FF121F657F40121F6A7F8115
:1016B900121F6A7FCF121F6A7FA1121F6A7FC81289
:1016C9001F6A7FA6121F6A7FA8121F6A7F3F121F17
:1016D9006A7FD3121F6AE4FF121F6A7FD5121F6A3D
:1016E9007F80121F6A7FD9121F6A7FF1121F6A7FDA
:1016F900DA121F6A7F12121F6A7FDB121F6A7F408C
:10170900121F6A7F20121F6A7F02121F6A7F8D12C1
:101719001F6A7F14121F6A7FA4121F6A7FA6121FF5
:101729006A7FAF121F6AE4FF122178E4FDFF0221EC
:01173900238C
:0C1B5F008F298C2A8D2B8B2C8A2D892E2F
:101B6B00E4F52FF530AB2CAA2DA92E853082758389
:101B7B0000121057604824E0F52FE529D3947E40DE
:101B8B000BE4F529052BE52B7002052AAD2BAF29AC
:101B9B00122123E4FD75F006E52FA42426F582E53A
:101BAB00F03408F583E5822DF582E43583121F3876
:0E1BBB000DBD06E174062529F529053080A729
:011BC90022F9
:0C173A008F298C2A8D2B8B2C8A2D892E58
:10174600E4F52FF530AB2CAA2DA92E8530827583B2
:1017560000121057607324E0F52FE529D3947840E2
:101766000BE4F529052BE52B7002052AAD2BAF29D5
:10177600122123E4FD75F010E52FA42DF582E43542
:10178600F0F583E582244EF582E583340A121F388C
:101796000DBD08E1E52B04FDAF29122123E4FD75FB
:1017A600F010E52FA42DF582E435F0F583E58224CB
:1017B60056F582E583340A121F380DBD08E1740818
:0917C6002529F529053002174B15
:0117CF0022F7
:061DBC008C528D53A907B3
:101DC200E4FDEBAE027805C333CE33CED8F9FBAADD
:101DD20006AF01AD53122123E4FD121F300BBB00ED
:101DE200010A0DBD10F4AF01E55304FD122123E4F5
:0D1DF200FD121F300BBB00010A0DBD10F4E7
:011DFF0022C1
:0A1974008F318C328D338A348B35AD
:10197E00E4F53BF53CAE36AF37FC7D08121084ED36
:10198E004CAE36AF37700AFC7D081210848F3D8046
:10199E000B7C007D08121084EF04F53D85333DC3AA
:1019AE00E53D9537E5366480F8748098503AAD3D44
:1019BE00AF31122123AD31EDC39535E5346480F896
:1019CE00748098501FAB38AA39A93A053CE53CAE55
:1019DE003B7002053B14F5828E83121057FF121FC7
:0819EE003D0D80D3053D80B7DB
:0119F60022CE
:10144100D2A4D2A5D2A6D2A7D287D286C200C2A2E6
:10145100C2A4D2A5E4F546F547F548D2B220B2FDC3
:10146100D201538EBFE4F58DF58B758CA9758A9ADF
:10147100C3E54894C8E54794005056E4F58DF58BD3
:1014810030B2FDAF46054674002FF582E43400F515
:1014910083E58BF0AF46054674002FF582E43400F6
:1014A100F583E58DF0E4F58DF58B20B2FDAF4605B2
:1014B1004674002FF582E43400F583E58BF0AF46E6
:1014C100054674002FF582E43400F583E58DF08044
:1014D1009FE4F546E546C394C8400302157C7401B8
:1014E1002546F582E43400F583E0FE74002546F5D7
:1014F10082E43400F583E07C002400FFEC3ECF243D
:101501004CCF34FF753E008F3FF5417540007400AC
:101511002546F582E43400F583EFF074012546F5A4
:1015210082E43400F583E541F074032546F582E455
:101531003400F583E0FE74022546F582E43400F5BB
:1015410083E02400FFEC3ECF248CCF3400753E00B5
:101551008F3FF54175400074022546F582E4340061
:10156100F583EFF074032546F582E43400F583E555
:1015710041F074042546F5460214D5E54275F00A9A
:10158100A47C002543FFEF75450025E0F544AF45F8
:10159100FE1220E0E4F5467E00E5452546FFEE35E6
:1015A10044FE74002546F582E43400F583E0FD1223
:1015B10020BC0546E546C394C840DCD2A4C2A5C2FE
:0515C10001438E4022F1
:1015C600D2A7C287D286D201538EBFD200E542751A
:1015D600F00AA47C002543FFEF75450025E0F5449D
:1015E600E4F5467E00E5452546FFEE3544FE12202D
:1015F6009874002546F582E43400F583EFF005463D
:10160600E546C394C840DC758CFF758A05E4F5464B
:10161600F547F548C3E5489460E547943B5068E4D0
:10162600F58DF58B74002546F582E43400F583E0EC
:10163600FFE58BC39F401374012546F582E4340011
:10164600F583E0FFE58DC39F5004D20280D60546A0
:101656000546E4F58DF58B74002546F582E43400E5
:10166600F583E0FFE58BC39F401374012546F582A1
:10167600E43400F583E0FFE58DC39F5004C2028089
:10168600D605460546808DC201438E40C2A7D28745
:03169600C28622E7
:101FDC0020000F758CA9758A9A0548E5487019057B
:101FEC004722758CFF758A050548E5487002054740
:091FFC00300203B2A222C2A222AB
:10209800AD07AC068CC3EDF5C453C5F843C5015371
:1020A800C71843C70243C78075C65A75C6A553C724
:0420B8007FAFC22212
:1020BC00AB07AA068AC3EBF5C453C5F843C5028D1A
:1020CC00C253C71843C70243C78075C65A75C6A505
:0420DC0053C77F2245
:1020E000AD07AC068CC3EDF5C453C5F843C5035327
:1020F000C71843C70143C78075C65A75C6A553C7DD
:022100007F223C
:0300000002186083
:0C186000787FE4F6D8FD7581530218A7CC
:10103E00BB010689828A83E0225002E722BBFE02B0
:09104E00E32289828A83E49322E3
:10105700BB010CE58229F582E5833AF583E022504E
:1010670006E92582F8E622BBFE06E92582F8E22298
:0D107700E58229F582E5833AF583E49322B2
:10108400C2D5EC30E709B2D5E4C39DFDE49CFCEE87
:1010940030E715B2D5E4C39FFFE49EFE1211F7C3F7
:1010A400E49DFDE49CFC80031211F730D507C3E4F2
:0610B4009FFFE49EFE22F6
:1010BA00E88FF0A4CC8BF0A42CFCE98EF0A42CFCD5
:1010CA008AF0EDA42CFCEA8EF0A4CDA8F08BF0A453
:1010DA002DCC3825F0FDE98FF0A42CCD35F0FCEBB2
:1010EA008EF0A4FEA9F0EB8FF0A4CFC5F02ECD3977
:0F10FA00FEE43CFCEAA42DCE35F0FDE43CFC22E4
:1011090075F008758200EF2FFFEE33FECD33CDCC9D
:1011190033CCC58233C5829BED9AEC99E582984020
:101129000CF582EE9BFEED9AFDEC99FC0FD5F0D6FD
:10113900E4CEFBE4CDFAE4CCF9A88222B800C1B927
:101149000059BA002DEC8BF084CFCECDFCE5F0CB65
:10115900F97818EF2FFFEE33FEED33FDEC33FCEB9E
:1011690033FB10D703994004EB99FB0FD8E5E4F959
:10117900FA227818EF2FFFEE33FEED33FDEC33FC46
:10118900C933C910D7059BE99A4007EC9BFCE99A3A
:10119900F90FD8E0E4C9FAE4CCFB2275F010EF2F7F
:1011A900FFEE33FEED33FDCC33CCC833C810D7077F
:1011B9009BEC9AE899400AED9BFDEC9AFCE899F8BA
:0E11C9000FD5F0DAE4CDFBE4CCFAE4C8F9224D
:1011D7007401FF3395E0FEFDFC080808E6CF2FF603
:1011E70018E6CE3EF618E6CD3DF618E6CC3CF622DC
:10186C00021C30E493A3F8E493A34003F68001F246
:10187C0008DFF48029E493A3F85407240CC8C3337D
:10188C00C4540F4420C8834004F456800146F6DF4C
:10189C00E4800B0102040810204080901ED3E47EEB
:1018AC00019360BCA3FF543F30E509541FFEE49341
:1018BC00A360010ECF54C025E060A840B8E493A308
:1018CC00FAE493A3F8E493A3C8C582C8CAC583CA33
:1018DC00F0A3C8C582C8CAC583CADFE9DEE780BEEB
:011F020000DE
:1011F700BC000BBE0029EF8DF084FFADF022E4CCDC
:10120700F875F008EF2FFFEE33FEEC33FCEE9DECA4
:10121700984005FCEE9DFE0FD5F0E9E4CEFD22EDEA
:10122700F8F5F0EE8420D21CFEADF075F008EF2F34
:10123700FFED33FD4007985006D5F0F222C398FD25
:051247000FD5F0EA22C2
:00000001FF
