:100D9700120A9B120D7A120DEB120DFC120DAE12F8
:070DA7000CEC120B9480FB21
:060C7A0001370001380003
:100DAE00D281D284C280C282C283C285D2A4D2A58D
:050DBE00D2A6D2A7221D
:1008BE00E53924FE601C14602B1460342403704050
:1008CE00C280D282D283C285D2A4D2A5C2A6D2A71A
:1008DE00802ED280C282C283D285D2A4D2A5D2A6C5
:1008EE00C2A7801CD280C282D283C285C2A4800AD3
:1008FE00C280C282C283C285D2A4D2A5D2A6D2A7FA
:10090E0030B32520B70620A10375390420B7063071
:10091E00A10375390130B70620A10375390230B72E
:0C092E000A30A107753903227539042234
:1009B400E53924FE601C14602B1460342403704059
:1009C400C280D282D283C285D2A4D2A5C2A6D2A723
:1009D400802ED280C282C283D285D2A4D2A5D2A6CE
:1009E400C2A7801CD280C282D283C285C2A4800ADC
:1009F400C280C282C283C285D2A4D2A5D2A6D2A703
:100A040020A00620A30375390320A00630A3037594
:100A1400390230A00620A30375390130A00630A3A3
:050A24000375390422F6
:100A2900E53924FE601F14602E14603714604224D7
:100A390004704EC280D282D283C285D2A4D2A5C20A
:100A4900A6D2A7803CD280C282C283D285D2A4D248
:100A5900A5D2A6C2A7802AD280C282D283C285C269
:100A6900A4800AC280C282C283C285D2A4D2A580D0
:100A79000CC280D282C283D285D2A4C2A5D2A6D208
:100A8900A720A00620A30320B304753904227539D1
:020A9900032236
:100DD800D2B5E4FFFE0FBF00010EEF64964E70F52A
:020DE800C2B592
:010DEA0022E6
:1007A200E4F530F52FF52EF52D120DD8E4F58DF583
:1007B2008BE58DC394FA500330B4F6E58DD394FAE9
:1007C200506DE4F58DF58B20B4FDAF8DE48F30F5DF
:1007D2002FF52EF52DAE2FAD2EAC2DFB7A01F9F8AB
:1007E2001205928F308E2F8D2E8C2DAF8BE4FCFD57
:1007F200FEE5302FF530EE352FF52FED352EF52EA7
:10080200EC352DF52DAF30AE2FAD2EFCE47B11FA79
:10081200F9F81205928F308E2F8D2E8C2DE47B6687
:0F0822007A56F9F812061D8F308E2F8D2E8C2DE1
:0108310022A4
:100CA1001207A2EFC3940A500CC280C282C283C24F
:100CB10085D2A4800AD280C282D283C285C2A4D244
:060CC100A5D2A6D2A72275
:100CC7007FFF120E0D7F03120E0DE4FF120E0D12A1
:100CD70007A2120E0D7FFF120E0D7FE87E037D0027
:050CE7007C00020C2856
:100B9400E53865376017E5386010C280C282C283C9
:100BA400C285D2A4D2A5D2A6D2A7853738E53724E8
:100BB400FE600D14600D14600D2403700C0208BE59
:0A0BC4000209B4020A29120CA12252
:080BFF008F1F8E1E8D1D8C1C42
:100C0700781C74FF1206B1EC4D4E4F6013E4FAFBEB
:100C1700C3EB941AEA940450E70BBB00010A80F077
:010C270022AA
:100C8000020A0000100C005A002D00430043005AD5
:0A0C9000005A003C005A0208000060
:080C28008F368E358D348C33BC
:100C3000783374FF1206B1EC4D4E4F6013E4FAFBAB
:100C4000C3EB941AEA940450E70BBB00010A80F04E
:010C50002281
:100DEB005389F0438901438EC043B802D28CD2A9F8
:010DFB0022D5
:100DFC00D2AB53890F438910758DA9758B9AD28EFE
:010E0C0022C3
:03000B00020B5194
:100B5100C0E0C0F0C083C082C0D075D000C000C06A
:100B610001C002C003C004C005C006C007300105B2
:100B7100120C518003120026D007D006D005D004F4
:100B8100D003D002D001D000D0D0D082D083D0F019
:030B9100D0E0327F
:03001B00020B01D4
:090B0100C0E0C0D075D000C006B0
:100B0A00758DA9758B9A050BE50B7002050AB4E879
:100B1A000CE50AB40307E53B6003753B000509E5EC
:100B2A0009AE087002050814C394E8EE9403401055
:100B3A00750800750900E53B6004B2878002D28718
:070B4A00D006D0D0D0E0324C
:100CEC00E4F52DE4252DFFE43464FE120D10E52D02
:100CFC0025E0240CF8760008A607052DE52DC394F5
:030D0C000840E0BC
:010D0F0022C1
:030C9A00013B001B
:100D7A00438780759850759C70438E04438E014357
:0D0D8A008E10D2ACD2AFD299C2A8C2AA225C
:0E0E0D00C2ACC2998F993099FDD299D2AC2215
:100DC300ED6011120567FF120E0D740129F9E43A63
:050DD300FA1D80EC2276
:100243009000C8E07062A3E0604D24FE6019146062
:1002530024146032240360030203E1D280C282D2F9
:1002630083C285C2A4803AC280D282C283D285D29D
:10027300A4C2A5802ED280C282C283D285D2A4D248
:10028300A5D2A6C2A722C280D282D283C285D2A41B
:10029300D2A5C2A6D2A722C280C282C283C285D2FD
:1002A300A4D2A5D2A6D2A7229000C8E0640160031D
:1002B3000203429000CAE0FFD394B440030203E177
:1002C3009000C9E014B4080040030203E19002DE89
:1002D30075F003A4C58325F0C583730202F60202F9
:1002E300FC02030602031002031A02032402032E74
:1002F300020338750C008F0D229000CAE0750E00C2
:10030300F50F229000CAE0751000F511229000CA83
:10031300E0751200F513229000CAE0751400F5157C
:10032300229000CAE0751600F517229000CAE07506
:100333001800F519229000CAE0751A00F51B2290E7
:1003430000C8E0B4501DA3E0FFC3940540030203BB
:10035300E1A3E0FEC3940A40030203E18F258E2646
:100363000203E29000C8E0B45117A3E0FFC3940571
:10037300506CA3E0FEC3940A50648F258E260206B8
:10038300CF9000C8E064137026A3E0601E24FE60D3
:100393000E14600F1460102403701075370122755A
:1003A3003702227537032275370422E4F53722908A
:1003B30000C8E064327027FF7E64120D58E4F52C08
:1003C300E52C25E0240CF808E6FDE4252CFFE434B5
:0E03D30064FE120D34052CE52CC3940840E2A4
:0103E10022F9
:0300230002093A95
:10093A00C0E0C0F0C083C082C0D075D000C000C083
:0D094A0001C002C003C004C005C006C00704
:1009570030983DC298E53B7010E599F47034753BCB
:1009670001F50AF50BF53A8029E599B4FF10753BB7
:1009770000E53AB40303120243753A00801474C8C1
:10098700253AF582E43400F583E599F0053A8002CB
:02099700C29903
:10099900D007D006D005D004D003D002D001D000B2
:0B09A900D0D0D082D083D0F0D0E0325C
:100A9B00C2ACE4F52DF52EB2A4120BCEB2A5120BFF
:100AAB00CEB2A6120BCEB2A7120BCEB287120BCEC2
:100ABB00B286120BCE052EE52E7002052DC39412B5
:100ACB00E52D940040D1E4F52DF52EB2A4B2A5B2DC
:100ADB00A6B2A7B287B2867FE87E03120BD2052E91
:100AEB00E52E7002052DC3940FE52D940040DCD24A
:050AFB00A5D2A7D28680
:010B000022D2
:080BCE007F5E7E017D007C00CA
:080BD6008F328E318D308C2F1F
:100BDE00782F74FF1206B1EC4D4E4F6013E4FAFB02
:100BEE00C3EB941AEA940450E70BBB00010A80F0A1
:010BFE0022D4
:030C9D00013C0017
:10002600E53CB410004003020238900037F8282857
:10003600730200670200850200A20200C00200DD12
:100046000200FB020118020136020153020171028D
:10005600018E0201AC0201C80201E50202010202A0
:100066001EAE0CAF0D7C007DF5120580C374CD9FCE
:10007600FB74D49EF58CAF038F8AD290020238AE01
:100086000CAF0D7C007DF5120580EF2433FBEE34BA
:1000960053F58CAF038F8AC290020238AE0EAF0FB3
:1000A6007C007DF5120580C374CD9FFB74D49EF54C
:1000B6008CAF038F8AD291020238AE0EAF0F7C004E
:1000C6007DF5120580EF2433FBEE3453F58CAF0338
:1000D6008F8AC291020238AE10AF117C007DF512F4
:1000E6000580C374CD9FFB74D49EF58CAF038F8AB5
:1000F600D292020238AE10AF117C007DF512058057
:10010600EF2433FBEE3453F58CAF038F8AC2920291
:100116000238AE12AF137C007DF5120580C374CD94
:100126009FFB74D49EF58CAF038F8AD2930202385C
:10013600AE12AF137C007DF5120580EF2433FBEE83
:100146003453F58CAF038F8AC293020238AE14AFD4
:10015600157C007DF5120580C374CD9FFB74D49E7B
:10016600F58CAF038F8AD294020238AE14AF157C99
:10017600007DF5120580EF2433FBEE3453F58CAF8A
:10018600038F8AC294020238AE16AF177C007DF543
:10019600120580C374CD9FFB74D49EF58CAF038F7C
:1001A6008AD295020238AE16AF177C007DF512058D
:1001B60080EF2433FBEE3453F58CAF038F8AC29560
:1001C6008070AE18AF197C007DF5120580C374CD22
:1001D6009FFB74D49EF58CAF038F8AD2968053AE64
:1001E60018AF197C007DF5120580EF2433FBEE3441
:1001F60053F58CAF038F8AC2968037AE1AAF1B7C3D
:10020600007DF5120580C374CD9FFB74D49EF58CDA
:10021600AF038F8AD297801AAE1AAF1B7C007DF58A
:10022600120580EF2433FBEE3453F58CAF038F8A2F
:0C023600C297053CE53CB41003E4F53C25
:010242002299
:1003E200D2A4D2A5D2A6D2A7D287D286C200C2A256
:1003F200C2A4D2A5E4F529F52AF52BD2B220B2FD8A
:10040200D201538EBFE4F58DF58B758CA9758A9A4E
:10041200C3E52B94C8E52A94005056E4F58DF58B7C
:1004220030B2FDAF29052974002FF582E43400F5BE
:1004320083E58BF0AF29052974002FF582E434009F
:10044200F583E58DF0E4F58DF58B20B2FDAF29053E
:100452002974002FF582E43400F583E58BF0AF298F
:10046200052974002FF582E43400F583E58DF080D0
:100472009FE4F529E529C394C8400302051D7401D0
:100482002529F582E43400F583E0FE74002529F580
:1004920082E43400F583E07C002400FFEC3ECF24AC
:1004A2004CCF34FF7521008F22F524752300740090
:1004B2002529F582E43400F583EFF074012529F54E
:1004C20082E43400F583E524F074032529F582E4FF
:1004D2003400F583E0FE74022529F582E43400F548
:1004E20083E02400FFEC3ECF248CCF340075210042
:1004F2008F22F52475230074022529F582E4340045
:10050200F583EFF074032529F582E43400F583E5E1
:1005120024F074042529F529020476E52575F00AEC
:10052200A47C002526FFEF75280025E0F527AF28DB
:10053200FE120D58E4F5297E00E5282529FFEE3547
:1005420027FE74002529F582E43400F583E0FD12CC
:100552000D340529E529C394C840DCD2A4C2A5C242
:0505620001438E402260
:1006CF00D2A7C287D286D201538EBFD200E525753D
:1006DF00F00AA47C002526FFEF75280025E0F527FA
:1006EF00E4F5297E00E5282529FFEE3527FE120DBA
:1006FF001074002529F582E43400F583EFF0052905
:10070F00E529C394C840DC758CFF758A05E4F5298B
:10071F00F52AF52BC3E52B9460E52A943B5068E44A
:10072F00F58DF58B74002529F582E43400F583E00F
:10073F00FFE58BC39F401374012529F582E4340034
:10074F00F583E0FFE58DC39F5004D20280D60529C3
:10075F000529E4F58DF58B74002529F582E4340025
:10076F00F583E0FFE58BC39F401374012529F582C4
:10077F00E43400F583E0FFE58DC39F5004C202808F
:10078F00D605290529808DC201438E40C2A7D28785
:03079F00C28622ED
:100C510020000F758CA9758A9A052BE52B70190553
:100C61002A22758CFF758A05052BE52B7002052A52
:090C7100300203B2A222C2A22249
:100D1000AD07AC068CC3EDF5C453C5F843C501530C
:100D2000C71843C70243C78075C65A75C6A553C7BF
:040D30007FAFC222AD
:100D3400AB07AA068AC3EBF5C453C5F843C5028DB5
:100D4400C253C71843C70243C78075C65A75C6A5A0
:040D540053C77F22E0
:100D5800AD07AC068CC3EDF5C453C5F843C50353C2
:100D6800C71843C70143C78075C65A75C6A553C778
:020D78007F22D8
:03000000020832C1
:0C083200787FE4F6D8FD75813C0208795F
:10056700BB010689828A83E0225002E722BBFE0292
:09057700E32289828A83E49322C5
:10058000EF8DF0A4A8F0CF8CF0A428CE8DF0A42E8F
:02059000FE2249
:10059200E88FF0A4CC8BF0A42CFCE98EF0A42CFC08
:1005A2008AF0EDA42CFCEA8EF0A4CDA8F08BF0A486
:1005B2002DCC3825F0FDE98FF0A42CCD35F0FCEBE5
:1005C2008EF0A4FEA9F0EB8FF0A4CFC5F02ECD39AA
:0F05D200FEE43CFCEAA42DCE35F0FDE43CFC2217
:1005E10075F008758200EF2FFFEE33FECD33CDCCD1
:1005F10033CCC58233C5829BED9AEC99E582984054
:100601000CF582EE9BFEED9AFDEC99FC0FD5F0D630
:10061100E4CEFBE4CDFAE4CCF9A88222B800C1B95A
:100621000059BA002DEC8BF084CFCECDFCE5F0CB98
:10063100F97818EF2FFFEE33FEED33FDEC33FCEBD1
:1006410033FB10D703994004EB99FB0FD8E5E4F98C
:10065100FA227818EF2FFFEE33FEED33FDEC33FC79
:10066100C933C910D7059BE99A4007EC9BFCE99A6D
:10067100F90FD8E0E4C9FAE4CCFB2275F010EF2FB2
:10068100FFEE33FEED33FDCC33CCC833C810D707B2
:100691009BEC9AE899400AED9BFDEC9AFCE899F8ED
:0E06A1000FD5F0DAE4CDFBE4CCFAE4C8F92280
:1006AF007401FF3395E0FEFDFC080808E6CF2FF636
:1006BF0018E6CE3EF618E6CD3DF618E6CC3CF6220F
:10083E00020D97E493A3F8E493A34003F68001F22C
:10084E0008DFF48029E493A3F85407240CC8C333BB
:10085E00C4540F4420C8834004F456800146F6DF8A
:10086E00E4800B0102040810204080900C7AE47E94
:10087E00019360BCA3FF543F30E509541FFEE4937F
:10088E00A360010ECF54C025E060A840B8E493A346
:10089E00FAE493A3F8E493A3C8C582C8CAC583CA71
:1008AE00F0A3C8C582C8CAC583CADFE9DEE780BE29
:010CA0000053
:00000001FF
